:020000040800F2
:10000000803701205503000803760008CF4100081F
:1000100001760008591A0008DD8A00080000000077
:100020000000000000000000000000009502000831
:10003000151F000800000000F1020008C579000843
:100040006F0300086F0300086F030008B979000808
:100050006F0300086F030008171F00086F030008F4
:100060001D1F0008231F0008291F00086F03000838
:100070006F0300086F0300086F0300086F03000898
:100080006F0300086F0300086F0300086F03000888
:100090006F0300086F0300086F0300086F03000878
:1000A0006F0300086F0300086F0300086F03000868
:1000B0006F0300086F0300086F0300086F03000858
:1000C0006F0300086F0300086F0300086F03000848
:1000D0006F030008B18A00086F0300086F0300086F
:1000E0006F0300080D7900086F0300086F03000814
:1000F0006F0300086F0300086F0300086F03000818
:100100006F0300086F0300086F0300086F03000807
:100110006F0300086F030008897A00086F03000866
:100120006F0300086F0300086F0300086F030008E7
:100130006F0300086F0300086F0300086F030008D7
:100140006F0300086F0300086F0300086F030008C7
:100150006F0300086F0300086F0300086F030008B7
:100160006F0300086F0300086F0300086F030008A7
:100170006F0300086F0300086F0300080000000011
:100180006F0300086F03000800F002F800F072F837
:100190000AA090E8000C82448344AAF10107DA45E2
:1001A00001D100F067F8AFF2090EBAE80F0013F0C2
:1001B000010F18BFFB1A43F00103184784DC03004A
:1001C000A4DC03000A444FF0000C10F8013B13F0CC
:1001D000070408BF10F8014B1D1108BF10F8015BA0
:1001E000641E05D010F8016B641E01F8016BF9D193
:1001F00013F0080F1EBF10F8014BAD1C0C1B09D1EA
:100200006D1E58BF01F801CBFAD505E014F8016B5B
:1002100001F8016B6D1EF9D59142D6D370470000ED
:100220000023002400250026103A28BF78C1FBD8FF
:10023000520728BF30C148BF0B607047662930F0B5
:100240007886642900F09081782900F0C9817329AB
:1002500000F08186002070471FB530F060FE00F08E
:1002600091FE04000020002130F07AF9E0601FBD0B
:1002700010B510BD00F08EFF1146FFF7EDFF28F01E
:10028000A1F900F0ACFF03B4FFF7F2FF03BC0AF0E2
:1002900086F900002C4B19680868B0E8F04F80F32D
:1002A0000988BFF36F8F4FF0000080F3118870470B
:1002B0000000000008480068006880F308884FF0DC
:1002C000000080F3148862B661B6BFF34F8FBFF3AE
:1002D0006F8F00DF00BF00BF08ED00E0DFF80C000B
:1002E000016841F470010160704700BF88ED00E0D3
:1002F000EFF30980BFF36F8F134B1A681EF0100FD6
:1003000008BF20ED108A20E9F04F106009B44FF0CB
:10031000500080F31188BFF34F8FBFF36F8F2FF022
:1003200057F94FF0000080F3118809BC196808687C
:10033000B0E8F04F1EF0100F08BFB0EC108A80F349
:100340000988BFF36F8F70473C000020EFF30580F2
:10035000704700000948804709480047FEE7FEE76C
:10036000FEE7FEE7FEE7FEE7FEE7FEE7FEE7FEE765
:1003700004480549054A064B70470000797A000891
:10038000890100088031012080370120803301205D
:1003900080330120704753EA020C00F069802DE998
:1003A000F04B4FF00006002B1FBFB3FA83F503FAA2
:1003B00005F424FA05F65E4012BF1643B2FA82F540
:1003C00002FA05F4C5F120051EBF22FA05FC44EA35
:1003D0000C04203556EA044C4FEA144418BF641C40
:1003E0004FF000084FF00009904271EB030C39D335
:1003F000002919BFB1FA81F701FA07F6B0FA80F7C0
:1004000000FA07F6C7F120071EBF20FA07FC46EAEC
:100410000C062037B6FBF4FCA7EB0507103F07F0EE
:100420001F0BCBF120060CFA0BFB2CFA06F644BF8F
:10043000B3460026202FA4BF5E464FF0000B5BEAB8
:10044000060C08BF4FF0010B19EB0B09ABFB027C4C
:1004500048EB0608C01B06FB02CC0BFB03CC71EB80
:100460000C01C1E70B46024641464846BDE8F08B09
:1004700013B54FF000004FF00001AFF30080BDE86E
:100480001C4070470FB4044910B503AA029800F04D
:1004900067FD10BC5DF814FB280300200FB41CB5E9
:1004A000084B06AA7B4469460090059800F029FD98
:1004B00004460020694600F037FD20461CBC5DF86C
:1004C00014FB0000810A000070B5044685690068CD
:1004D000C10601D5302600E02026C00707D070BD38
:1004E000D4E9012130469047206A401C20626D1EED
:1004F000F6D570BD70B5044685690078C00707D190
:1005000070BDD4E9012120209047206A401C206260
:100510006D1EF6D570BD70B50C460546012A05D096
:100520002878800600D5EA69002302E0012305E06F
:100530005B1C934202D2E05C0028F9D1A869E6185E
:10054000C01AA861286A184428622846FFF7BCFF31
:1005500004E0D5E9012114F8010B9047B442F8D327
:100560002846FFF7C7FF70BD2DE9F041064600247D
:1005700010687529314616A510D0AFF30080002809
:1005800002DA404213A507E031688A0701D512A5B7
:1005900002E0490704D511A5012401E0AFF3008072
:1005A00000210A2206F1240709E0B0FBF2FCB0FBAF
:1005B000F2F302FB1C00303078541846491C002826
:1005C000F3D123462A463046BDE8F04100F02BBA6D
:1005D000000000002D0000002B00000020000000A3
:1005E00070B504460D4621461068AFF3008021889F
:1005F000090502D50F4A7A4402E00E4A7A440E32C7
:10060000002104F1240305E000F00F060009965DC7
:100610005E54491C0028F7D120780023000704D538
:10062000702D02D009B1022311322046BDE870407E
:1006300000F0F9B9AED103002DE9F05F8946044618
:100640004FF0000ADFF824B1FB44C0F820A0204698
:10065000E168884700287DD0252806D0D4E901210B
:100660009047206A401C2062F1E700255F46204643
:10067000E16888472028064607DB312E05D2B819E5
:1006800010F8200C08B10543F1E7A80701D525F0C3
:100690000405C4F81CA00027C4F818A02A2E09D00D
:1006A000304608F09FFA38B304EB8708303EC8F8AC
:1006B000186019E059F8041B204604EB8702916189
:1006C000E1688847012F064618D1E069002820DA42
:1006D00025F020051DE0D8F8180000EB800006EB9F
:1006E00040003038C8F818002046E16888470646C0
:1006F00008F078FA0028EED1012F0AD02E2E08D16A
:100700002046E16888477F1C0646022F45F02005F9
:10071000C4DBA069002803DA404245F00105A0616E
:10072000E80701D025F01005A6B1A6F1410019286F
:1007300002D8203645F400654A46314620462560F9
:100740004D46FFF77BFD60B1012807D0ED1D25F078
:10075000070000E007E000F1080978E705F1040967
:1007600075E730467AE7206ABDE8F09F84D1030040
:1007700040EA0103024630B59B0710D14FF0013427
:1007800000E008C208C91D1B9D4315EAC41FF8D02C
:1007900013F0FF0102F8011B0DD01B0AF8E711F856
:1007A000013B002B02F8013B05D011F8013B002B67
:1007B00002F8013BF3D130BD10B5431C02E010F844
:1007C000011B71B18107FAD14FF0013202C88C1AB6
:1007D0008C4314EAC211F9D0C01A0A0603D0C01E15
:1007E00010BDC01A10BD0A0401D0801E10BD090240
:1007F000FCD0401E10BD032A40F2308010F0030CE4
:1008000000F0158011F8013BBCF1020F624498BF63
:1008100011F801CB00F8013B38BF11F8013BA2F100
:10082000040298BF00F801CB38BF00F8013B11F07B
:10083000030300F02580083AC0F0088051F8043B1B
:10084000083A51F804CBA0E80810F5E7121D5CBF88
:1008500051F8043B40F8043BAFF30080D20724BFBB
:1008600011F8013B11F801CB48BF11F8012B24BF4F
:1008700000F8013B00F801CB48BF00F8012B70479E
:1008800010B5203AC0F00B80B1E81850203AA0E82B
:100890001850B1E81850A0E81850BFF4F5AF5FEA5F
:1008A000027C24BFB1E81850A0E8185044BF18C912
:1008B00018C0BDE810405FEA827C24BF51F8043BB9
:1008C00040F8043B08BF7047D20728BF31F8023B0D
:1008D00048BF11F8012B28BF20F8023B48BF00F8A1
:1008E000012B704702F0FF0343EA032242EA02426F
:1008F00000F002B84FF000020429C0F0128010F09E
:10090000030C00F01B80CCF1040CBCF1020F18BFEB
:1009100000F8012BA8BF20F8022BA1EB0C0100F07E
:100920000DB85FEAC17C24BF00F8012B00F8012B51
:1009300048BF00F8012B70474FF0000200B5134686
:1009400094469646203922BFA0E80C50A0E80C50EF
:10095000B1F12001BFF4F7AF090728BFA0E80C50A0
:1009600048BF0CC05DF804EB890028BF40F8042B99
:1009700008BF704748BF20F8022B11F0804F18BF06
:1009800000F8012B704700004FF0013C50F8042B99
:1009900051F8043B9A4221D1A2EB0C03934313EA92
:1009A000CC1317D150F8042B51F8043B9A4215D1BF
:1009B000A2EB0C03934313EACC130BD150F8042B96
:1009C00051F8043B9A4209D1A2EB0C03934313EA7A
:1009D000CC13DBD04FF00000704700BFD01A01BA33
:1009E000B1FA81F101F0180122FA01F0CB40C1F116
:1009F0002001DBB2C0B2C01A2CFA01F3D11A914324
:100A000011EAC311E6D170477047704770477047CD
:100A100010B500F0BBFA006810BD10B5044600F038
:100A2000B5FA046010BD2DE9F0470D46994692468F
:100A3000044600F124080168880604D5E06921F025
:100A40001001216000E00120A84201DD471B00E009
:100A50000027A1697A1902EB0900081AA061207821
:100A6000C00602D42046FFF72FFD002608E0D4E997
:100A700001211AF806009047206A401C761C20626B
:100A80004E45F4DB2078C0060AD52046FFF71CFD52
:100A900006E0D4E9012130209047206A401C206202
:100AA000381EA7F10107F4DC07E0D4E9012118F8AA
:100AB00005009047206A401C2062281EA5F1010510
:100AC000F3DC2046FFF716FD2078000602D5022051
:100AD000BDE8F0870120FBE770472DE9FF4F0C468A
:100AE0001E464FF0FF378BB0D2E90001DDF8608081
:100AF0000A908A46C1F30A5505B93D4600210846C9
:100B00004FF00000BAF1000F00F4400005DA00EBEE
:100B100080004FF4400101EA50004FEA9059B9F1CA
:100B2000010F00DDB9460A9850EA4A000ED044F69B
:100B30001050A5F2FF3545432F14B8F1000F1ED019
:100B40007542291E1EDDC9F100021CE0B8F1010F3B
:100B50004FF0000001D0302103E0F24305E02154C2
:100B6000401CB042FBDB30460022002121540B998F
:100B7000C1F80880C1E900200FB0BDE8F08FBD1BAF
:100B80006D1CDEE74A4600DA694206A800F088FAE2
:100B900006AB93E8070003AB83E8070050460A99C9
:100BA00000F026FB8DE80700A0F500501F380090EC
:100BB0000398002D0ADD42F21F014A460844002333
:100BC00003A90390684600F08FFD09E0A0F50050EE
:100BD0004A461F38002303A90390684600F099FD98
:100BE0008DE807000004000C03D04FF0FF304108EF
:100BF00000E01046B8F1000F03D000220092154625
:100C00001EE0751E05D400F0C5F9303262556D1E28
:100C1000F9D5B3460122084302D000227F1C04E02C
:100C20002078302801D100227F1E002A099784D025
:100C30001DE0112D07DA00F0ADF9303262556D1C60
:100C400050EA0102F5D1084302D00098C8B10EE085
:100C50000021681E05E0235C625C63542254401E40
:100C6000491C8142F7DBAB46A81B401E09900020BF
:100C700004F80B000B98099AC0F80880C0E9002B13
:100C80007AE711264FF0000857E72DE9F04F884624
:100C90000446D21D22F0070191B0D1E90001CDE94F
:100CA0000A0107F01CFF02460B98C00F01D02D204F
:100CB00007E02068810701D52B2002E0202101EA0E
:100CC000C000032A099001D0072A05DB03464146EC
:100CD000204600F0A5F90BE12078800601D5E069F7
:100CE00000E00620B8F1650F814606D0B8F1660F26
:100CF00018D0B8F1670F70D131E00020B9F1110FB1
:100D0000009001DB112301E009F101030AAA01A906
:100D10000CA8FFF7E2FEDDE90C70002609F10105E1
:100D2000834647E001204B4600904FF000470AAA57
:100D300001A90CA8FFF7D1FEDDE90DB00C995D46C5
:100D4000002610B909F101000D18B9EB050003D414
:100D5000C0F1FF3609F10105A5EB09002BE0B9F15F
:100D6000010F01DA4FF001090020B9F1110F0090D5
:100D7000484601DD112300E003460AAA01A90CA898
:100D8000FFF7ABFEDDE90C704D4600268346207868
:100D900000070AD4AB4500DA5D4601A8012D04DD49
:100DA000411911F8011C302907D04F4502DA17F11B
:100DB000040F04DA012082460FE06D1EEEE7002FDB
:100DC00002DCED1B3E4403E0781CA84200DD7D1CE4
:100DD000B81B00F1010A4FF000472078000703D448
:100DE000AA4501DB4FF0FF3A0021B7F1004F0DF1AA
:100DF00043088DF8431024D002202B23002F01DA62
:100E00007F422D230A21021EA0F1010000DC5FB108
:100E100097FBF1FC97FBF1F201FB1C7C17460CF1F0
:100E2000300C08F801CDEEE7A8F10100037021882D
:100E3000090501D5452100E06521A0F1010800F870
:100E4000011C09980FA9A1EB0807FF1D00B10120A3
:100E5000411901EBEA70A1693844081A401EA061EB
:100E60002078C00602D42046FFF72EFB099828B14F
:100E7000D4E901219047206A401C20622078C006F6
:100E800022D52046FFF720FB1EE0002E04DBB345F1
:100E900002DD01A8805D00E03020D4E90121904707
:100EA000206A401C2062761CAAF101005FEA000A59
:100EB0000AD100F067F8C0680168405CD4E90121FC
:100EC0009047206A401C2062281EA5F10105DCDC49
:100ED00007E0D4E9012118F8010B9047206A401C73
:100EE0002062381EA7F10107F3DC2046FFF702FB62
:100EF000032011B041E6000001694A1C0261087834
:100F0000704700B58FB0CDE9013100210591054949
:100F10007944CDE9031011466846FFF78DFB0FB009
:100F200000BD0000E5FFFFFF0A6802F8010B0A6040
:100F3000704710B5436913B1AFF3008001E0FFF7CC
:100F4000EAFA012010BD127800F124010A70002293
:100F50004A700122EDE711684FF0FF32E9E7000027
:100F6000074B70B50D467B44FFF7CBFF0446284680
:100F700000F008F910B14FF0FF3070BD204670BD91
:100F8000EB360100004870473C31012000487047B3
:100F90001C31012030B5B0F10A024FEA900E71F118
:100FA00000034EEA817EB0EB0E0061EB91014FEA47
:100FB000101E4EEA017E10EB0E0041EB11114FEABC
:100FC000102E4EEA016E10EB0E0041EB11214FEA9C
:100FD000104E4EEA014E10EB0E0041EB114140184D
:100FE00041F100014FEAD00040EA41704FEAD101DF
:100FF00010EB80054FEA810444EA907444EB01044D
:101000006D1944EB0404521BA3414FF0000348BF89
:101010000A3200D530BD401C41F1000130BD000056
:101020002DE9F0411F46044603260168072A01F412
:10103000006004DB08B116A505E016A503E008B1C1
:1010400015A500E015A521F010002060A069C01EC4
:10105000A0610FB1401EA0612046FFF735FA4FB1E5
:10106000D4E9012138469047206A401C2062C01C08
:10107000206206E0206AFAE7D4E9012115F8010BA5
:101080009047761EF8D22046FFF734FABDE8F0818B
:101090004E414E006E616E00494E4600696E66001C
:1010A0002DE9F047814616468AB0354878440DC888
:1010B0008DE80D0032487844801C03AC0DC884E8EC
:1010C0000D0041F69B300844372190FBF1F290FB74
:1010D000F1F5A5F1800501FB12041B3C02D5644229
:1010E000012000E00020DFF898A080460027FA44A5
:1010F000AAF1BE0A0EE0E0070AD03246684607EBC6
:10110000470101230AEB810100F003FB8DE8070092
:1011100064107F1C002CEED1194F7F44AE3F19E0C4
:10112000E80715D007EB04100DF1180A90E80E003F
:101130008AE80E00C068F04201D198190890324642
:10114000012306A903A800F0E4FA03AB83E8070033
:101150006D10641C002DE3D14FF001033246694647
:10116000B8F1000F03A802D000F0BEFA01E000F0D1
:10117000D0FAC9E90001C9F808200AB0BDE8F08733
:10118000B0C70300007B00F0800070470048704744
:101190001C3101207546FFF7F9FFAE460500694690
:1011A000534620F00700854618B020B5FFF7E0F859
:1011B000BDE820404FF000064FF000074FF0000858
:1011C0004FF0000B21F00701AC46ACE8C009ACE8D9
:1011D000C009ACE8C009ACE8C0098D46704710B53D
:1011E0000446AFF300802046BDE81040FFF74BB83F
:1011F0005FEA400C08BF91F0000F4FEA8C234FEAE2
:10120000C12243EA51514FEA1C5018BF00F5F0408B
:101210004FEA300018BF41F000415FEA6C5C00F01B
:101220002980BCF1FF3F08BF40F080407047130C9D
:1012300006BF12044FF0100C4FF0000C130E04BF49
:1012400012020CF1080C130F04BF12010CF1040C74
:10125000930F04BF92000CF1020CD30F04BF520095
:101260000CF1010C11464FF00002A0F11F00A0EBA1
:101270000C00704711F0004F08BF704731F000417B
:101280003FF4D5AF0B0C06BF09044FF0100C4FF024
:10129000000C0B0E04BF09020CF1080C0B0F04BF6D
:1012A00009010CF1040C8B0F04BF89000CF1020C36
:1012B000CB0F04BF49000CF1010CCCF12003A0EBD3
:1012C0000C0022FA03F302FA0CF241EA030100F1E6
:1012D0000100704720F07F4C80EA030023F07F4735
:1012E000ACEB070303F57C5300F0004003F1FF0370
:1012F0002DE980494FEA154B09B44FEA144325EA1A
:101300000B4E24EA03480FF2042606EB1327490884
:101310003E785FEA320203FB0667C7F5000707FB6A
:1013200006F64FEA54374FEAD64606F1020607FBA7
:10133000066CCCF1005C4FEA1C472CEA074C07FB1B
:1013400006F40CFB06F504EB15464FEA961634BF7F
:1013500000204FF000404FEAD13706FB07FC4FEA70
:101360001C4C0CFB0BF7D21B03FB0CF761EB0701CA
:101370000CFB0EF7B0EB074072EB17420CFB08F7C3
:1013800034BFA2EB0742B2EB074261EB17414FEAD1
:101390000C444FEA910706FB07FC4FEA1C4C0CFB80
:1013A0000BF7B0EBC74072EB573203FB0CF734BFBF
:1013B000A2EBC742B2EBC74261EB57310CFB0EF711
:1013C000B0EBC70072EB57720CFB08F734BFA2EB0F
:1013D000C702B2EBC70261EB5771039F4FEA81610D
:1013E00041EA921104EBCC044FEAD1374FEA826212
:1013F00006FB07FC42EA90124FEA80604FEA1C4C61
:101400000CFB0BF7D21B03FB0CF761EB07010CFB8A
:101410000EF7B0EB074072EB17420CFB08F734BF36
:10142000A2EB0742B2EB074261EB17414FEA8C5542
:101430004FEA910704EB9C2406FB07FC4FEA1C4C87
:101440000CFB0BF7B0EBC74072EB573203FB0CF70A
:1014500034BFA2EBC742B2EBC74261EB57310CFB82
:101460000EF7B0EBC70072EB57720CFB08F734BFF6
:10147000A2EBC702B2EBC70261EB577115EB4C252B
:101480004FEA816141EA92114FEA82624FEAD13715
:1014900042EA901206FB07FC44F100044FEA806028
:1014A0004FEA1C4C0CFB0BF7D21B03FB0CF761EB58
:1014B00007010CFB0EF7B0EB074072EB17420CFB79
:1014C00008F734BFA2EB0742B2EB074261EB1741CA
:1014D00015EB1C154FEA813141EA92414FEA823205
:1014E00042EA90424FEA80304FEA0C7644F1000421
:1014F00048EA03434EEA0B484FF0000EB2EB080CEB
:1015000071EB030724BF624639464EEB0E0E4FF0D7
:10151000000B0018524149414BEB0B0BB2EB080C8E
:1015200071EB03077BF1000B24BF624639464EEB9B
:101530000E0E4FF0000B0018524149414BEB0B0BC4
:10154000B2EB080C71EB03077BF1000B24BF624682
:1015500039464EEB0E0E51EA020718BF46F001065F
:1015600016EB0E7655F1000254F1000103D5BDE8EB
:101570008901BDE80088BDE88901BDE80048B619C9
:10158000524141EB0101A3F10103704780807F7E4E
:101590007D7C7B7A797877767675747372717170E9
:1015A0006F6E6E6D6C6C6B6A6A696868676666659B
:1015B0006464636362616160605F5F5E5E5D5D5C29
:1015C0005C5B5B5A5A59595858575756565555559A
:1015D0005454535352525251515050504F4F4F4EFA
:1015E0004E4D4D4D4C4C4C4B4B4B4A4A4A49494948
:1015F000484848474747474646464545454444448A
:10160000444343434342424242414141002B9C46B2
:1016100030D477002BD01CB54FEA370703B44FF016
:1016200010004FF01001BAF1000F06D0BCF1000F0E
:10163000DCBF40F0080040F008014FF000000FBC94
:10164000BDE810400BF1010BBBF1010F08BF5FEAD1
:10165000170722BF12F1010211F101014FF0004101
:1016600043F1000300F0004043EA00007047F9D363
:101670005708D0E746EA064613F1400F4FEA1646F0
:101680001FDD13F1200FDFBF16430A460021203370
:101690005B42BED0C3F1200746EA064602FA07F7CE
:1016A0004FEA164646EA0706C3F1200722FA03F27C
:1016B00001FA07F721FA03F14FF0000342EA0702AB
:1016C000A7E746EA020646EA06464FEA164646EA13
:1016D0000106BCBF46EA0646360C4FF000034FF049
:1016E00000024FF0000194E72DE9804C9A469346A2
:1016F00070B491E8380007C831EA400C48BF34EABA
:10170000430C03D5FFF7E6FDFFF780FFF0BCBDE813
:10171000008C2DE9804C9A46934670B491E83800CD
:1017200007C810F0804F08BF13F0804F03D100F0BE
:1017300005F8FFF76BFFF0BCBDE8008C20F07F4799
:1017400080EA030023F07F4C07EB0C03A3F57C53E6
:1017500000F00040A3F1FE0392F0000F00F0B38010
:1017600095F0000F00F077802DE901494FEA114014
:101770004FEA144621EA004800FB06FC24EA06472B
:1017800008FB06F607FB08F800FB07F718EB06480E
:101790004CEB164C4FEA124B18EB07484FEA154634
:1017A0004CEB174022EA0B4E0BFB06FC25EA0647E2
:1017B0000EFB06F607FB0EFE0BFB07F71EEB064EB5
:1017C0004CEB164C4FF000061EEB074E4CEB174B44
:1017D00018EB0B0840F1000018EB0E0B58EB00085B
:1017E00040F100008F1A4FF000013CBFC943661B57
:1017F00014BFB5EB040C00213CBFC943F61B4FEAF4
:1018000017444EEA8E0E27EA04454FEA1C4704FBB4
:1018100007622CEA074C05FB07F70CFB05F604FBF7
:101820000CFC16EB074642EB174216EB0C4642EB5C
:101830001C421BEB060658EB0202414146EA9E069B
:1018400001D5BDE80189B619524141EB0101A3F16F
:101850000103BDE801894FEA14454FEA114724EA24
:10186000054621EA074C05FB07F406FB07F70CFBCE
:1018700006F105FB0CFC11EB074144EB17444FEA62
:10188000124711EB0C4144EB1C4422EA074C05FBC8
:1018900007F206FB07F70CFB06F605FB0CFC16EB44
:1018A000074642EB174216EB0C4642EB1C456A1802
:1018B00054F1000148BF7047B619524141EB010194
:1018C000A3F10103704795F0000F37D04FEA1142A2
:1018D0004FEA144721EA024624EA074C02FB07F1CB
:1018E00006FB07F70CFB06F402FB0CFC14EB0744A9
:1018F00041EB17414FEA154714EB0C4441EB1C41F7
:1019000025EA074C02FB07F506FB07F70CFB06F67A
:1019100002FB0CFC16EB074645EB174516EB0C4695
:1019200045EB1C42121951F1000148BF7047B6192E
:10193000524141EB0101A3F1010370474FEA144505
:101940004FEA114724EA054621EA074C05FB07F157
:1019500006FB07F70CFB06F24FF0000605FB0CFC3C
:1019600012EB074241EB174112EB0C4251EB1C41C9
:1019700048BF7047921841EB0101A3F10103704782
:1019800002F046BC2DE9F0410D4601460020044618
:101990004E1908E00702301B401E80B200F007F825
:1019A000641C3844E4B2AC42F4D3BDE8F08110B515
:1019B000044602F0D5FC200AA02101EB4000C0B291
:1019C00002F09EFC02F00CFDE0B202F099FC02F085
:1019D00007FD02F0C5FCA12002F092FC02F000FD20
:1019E000002002F059FC044602F0DAFC204610BD4B
:1019F0002DE9F04116460D460746002409E0E000B7
:101A000025FA00F0C1B2381980B200F006F8641C63
:101A1000E4B2B442F3D3BDE8F08170B50D4604469C
:101A200002F09EFC200AA02101EB4000C0B202F0AF
:101A300067FC02F0D5FCE0B202F062FC02F0D0FCE0
:101A4000284602F05DFC02F0CBFC02F0A9FCBDE8E8
:101A500070400A2000F04ABFFEE700002DE9F04187
:101A60000D4D0024C5F8AC42012005F52B7500F0A2
:101A70003DFF0A4F0126C7F88062304607F5207700
:101A800000F034FF3C60012000F030FF2E60BDE824
:101A9000F041012000F02ABF008042420080404215
:101AA000154810B5016886B041F002010160016877
:101AB00001F002010591016841F020010160006818
:101AC000012400F0200005901120CDE90040032002
:101AD000CDE902406946094800F090FFE00200901D
:101AE0006946074800F08AFF0648C0F8AC4206483D
:101AF000C0F8804206B010BD3038024000040240F9
:101B000000140240008042420080404270B50B4801
:101B10000125C0F8AC52284600F0E8FE084CC4F895
:101B20008052012004F5207400F0E0FE00202060C7
:101B3000BDE87040012000F0D9BE000000804242A4
:101B4000008040422DE9F0470024DFF84C80134E1E
:101B5000824625460127A1466006040EC6F880721B
:101B6000012000F0C3FED8F82C0208B1641CE4B2D6
:101B7000C6F88092012000F0B9FE6D1CEDB2082D70
:101B8000EAD3BAF1000F04D0FFF768FF2046BDE8A2
:101B9000F087FFF7BBFFF9E7008042420080404238
:101BA0002DE9F04700240E4F0E4E0546A1464FF09A
:101BB0000108E809C7F8AC02012000F097FEC6F85A
:101BC0008082012000F092FEC6F880926806641CB4
:101BD000050EE4B2082CECD3C7F8AC82BDE8F08760
:101BE000008042420080404270B50C4C0120C4F895
:101BF000AC020B4DC5F8800204F52B7405F5207579
:101C000000F074FE00262660012000F06FFE2E60BA
:101C1000BDE87040012000F069BE00000080424233
:101C20000080404270B50B4C0020C4F8AC0201208B
:101C300004F52B7400F05AFE07480125C0F88052C5
:101C4000284600F053FE2560BDE87040012000F0FA
:101C50004DBE000000804242008040422DE9F0412C
:101C60000024124E01272546C6F8AC72384600F013
:101C70003DFE38460E4FC7F8800207E0641CE4B210
:101C8000FA2C03D9FFF7CEFF012506E0012000F072
:101C90002DFED6F82C020028F0D10020C7F88002D3
:101CA000012000F023FE2846BDE8F081008042427A
:101CB000008040427047000070B50024204600F0CC
:101CC00061F84FF40065134E04E0641CE4B2012097
:101CD00000F022F82946304600F088FF18B1642C45
:101CE00013D2002407E0642CEFD30EE0641CE4B2AE
:101CF000012000F011F82946304600F077FF10B1BE
:101D0000642CF3D301E0642C01D3012070BD0020CA
:101D100070BD0000001802402DE9F1434FF46179D5
:101D2000DFF85C804FF0E024009824E04D46A842A4
:101D300000D80546A66901F093F9B0FBF8F000FB66
:101D40001567002F05DBA069B04211DAB842FADA54
:101D50000EE001F085F9B0FBF8F000EB4001C1EBBB
:101D6000C01007EBC001A069B042FCDD8842FADC7C
:101D70000098401B00900028D8D1BDE8F8830000EF
:101D800040420F0070B5002486B00E4E00284FF47C
:101D900000654FF01401684608D0FEF7CDFD012024
:101DA0000095CDE901040220039004E0FEF7C4FD94
:101DB000CDE9005402946946304600F01FFE06B09B
:101DC00070BD0000001802402DE9F0410E462DEDD7
:101DD000048B074600F07CF8FFF76EFF20B102206D
:101DE000BDEC048BBDE8F08100241E4D00F060F8CE
:101DF0002855641CE4B2052CF8D32C786878AA78AE
:101E0000EB7821181A4411442A79914228D12EF0F6
:101E1000D0FC9FED159B53EC192B2EF019FD41ECD6
:101E2000180B20462EF0C5FC53EC182B2EF0E0FBCF
:101E30002EF0ACFB3060E8782EF0BBFC53EC192B95
:101E40002EF006FD41EC180BA8782EF0B2FC53ECF6
:101E5000182B2EF0CDFB2EF099FB38600120BFE748
:101E60000020BDE72C0300209A9999999999B93FD0
:101E700070B50020FFF786FF0C4D4FF4006421463B
:101E8000284600F0B3FE0028F9D02820FFF744FFD1
:101E90002146284600F0AAFE002806D02146284602
:101EA00000F0A4FE0028F9D1012070BD0018024006
:101EB00070B5002425466006040EFFF7D9FF08B16F
:101EC00044F001046D1CEDB2082DF4D3204670BD22
:101ED00070B50120FFF756FF01220D4DD4022146B7
:101EE000284600F090FE012000F000FD002221466F
:101EF000284600F088FE142000F0F8FC012221465C
:101F0000284600F080FEBDE870401E20FFF704BFA9
:101F1000001802407047012000F064BD042000F06A
:101F200061BD082000F05EBD102000F05BBD72B600
:101F3000FEE7000030B5B3F5804F05D06FF070417B
:101F400040F82210002030BD8C690B688D68234357
:101F50004C688989240144EA0524234343EA01416A
:101F600050F82230014C23401943E9E70000F0CF3C
:101F700010B50A6850F8223023F0010340F82230EF
:101F80008C68082C23D000234A682243CC681C4369
:101F90000B6922431A434B690E4C1A43CB691A430F
:101FA0000B6A1A434B6A1A438B6A1A43CB6A1A4369
:101FB0000B6B1A438B691343CA6B09681A4350F8B9
:101FC0002130A343134340F82130002010BD4023AB
:101FD000DAE700007FFF0F0030B5D1E9003443EAB3
:101FE00004138C688D89240244EA054423430C8A37
:101FF000094D00EB820005EB045423430C7D6D0179
:1020000005EB0464896923430B43416801F04041B7
:102010000B434360002030BD0000F0FFF0B54648A0
:1020200089B00024016841F002010160016801F0FB
:1020300002010791016841F0040101600068012577
:1020400000F00400079003200226CDE90450CDE9FA
:10205000026402A9394800F0D1FC6803CDE9020509
:1020600002A9374800F0CAFCFFF71AFD354FC7F840
:10207000B442142007F52D7700F038FC3D60322083
:1020800000F034FC8DF8004001226946002000F089
:10209000BBF901226946A42000F0B6F916208DF89C
:1020A000000001226946802000F0AEF90C208DF876
:1020B000000001226946882000F0A6F90222694644
:1020C000A12000F04FF89DF80000302803D19DF8C2
:1020D000010003282AD00422694648F2401000F08B
:1020E00073FA8DF80440694617A0FEF7CBF919483A
:1020F000009948F24005C0F802108DF800600122F6
:102100006946284600F06EFB01226946E81D00F092
:102110005BFA0A2000F0EAFB8DF8004001226946D4
:10212000284600F05FFB09B00020F0BD43F2030138
:1021300009A0FEF7A7F9F6E7303802400004024094
:1021400000080240000041424354502049443A25CF
:10215000730D0A00E00200204354502049443A2500
:10216000780D0A002DE9F04115460E460446FFF7AA
:102170003BFD7020FFF714FDFFF770FDE0B2FFF7A5
:102180000FFDFFF76BFDFFF72FFD7120FFF708FD37
:10219000FFF764FD00246F1E09E0BC4201D001205E
:1021A00000E00020FFF7CEFC3055641CE4B2AC42E6
:1021B000F3D3BDE8F041FFF735BD00002DE9F1474D
:1021C00083B000268B4D8DF804604FF00A096878C3
:1021D000894C401CC0B2B0FBF9F209FB1201374632
:1021E000687009B10A2871D2824884A1801CFEF768
:1021F000CBFB4FF0010203A910B30220FFF7B2FF9F
:102200009DF80C00010761D0297800F00F028A4286
:102210005CD8FF209040C04394F8208040F0C0007C
:1022200084F8200004EB4100A2894281E18A818286
:10223000042000F05BFB8DF80460DFF8C4A185E0AA
:1022400048F24E18404600F0BFF99DF80C00010618
:10225000D6D5297800F00F008842D1D88DF80460D7
:10226000012201A9404600F0BDFAC9E794F8201008
:1022700001228240114264D05E4860A1801CFEF7BA
:1022800083FB20B35F489DF80410042230F811004E
:102290006946FFF767FF94F830009DF80010C0070B
:1022A0009DF8010001F00F0100EB012138D09DF8ED
:1022B000040004EB4000C1829DF802209DF8031049
:1022C00002F00F0201EB022181813AE059E04D4812
:1022D0009DF804100A30042230F81100694600F01D
:1022E00073F994F830009DF80110C0079DF80000C4
:1022F00000EB01219DF8040004EB400005D0818132
:102300009DF802109DF8032018E0C1829DF802108C
:102310009DF8032001EB0222BAF80010891AD3E7D6
:10232000BAF80000411A9DF8040004EB40008181D6
:102330009DF802209DF8031002F00F0201EB02212C
:10234000C1829DF80400401C8DF804009DF8040033
:10235000297888428AD3A189BAF8002001279142BE
:1023600004D8E18ABAF80200814209D99DF80C002C
:1023700000F00F00012812D9E089A081208BE082B3
:102380006E701C481DA1801CFEF7FEFA01009DF82E
:102390000C104FF6FF700FD0C90625D01BE028782F
:1023A00004EB40004189A181808AE08280208DF881
:1023B0000C0084F82080E4E701F08F01802913D01D
:1023C00009E000BF21F0800003E0A081E08201F07D
:1023D000E00084F820006878F02801D985F80190A1
:1023E00004B03846BDE8F08794F820100A06ECD512
:1023F000E8E70000E0020020F0020020393131005F
:10240000944D0020C4D603082DE9F04116460F462E
:1024100004460025FFF7E8FB7020FFF7C1FBFFF73C
:102420001DFCE0B2FFF7BCFBFFF718FC002408E03E
:10243000385DFFF7B5FBFFF711FC050003D1641C05
:10244000E4B2B442F4D3FFF7EDFB2846BDE8F081D7
:102450001FB50020104C0090451E019003A902A852
:10246000FFF7B2FC9DED020A29468DED000A9DEDB5
:10247000030A8DED010AA0692DF0C4FC00232A4651
:10248000694620692DF012FB00231A461946A069FF
:102490002DF00CFBE2E70000000000202DE9F043E6
:1024A0003B4889B00024016841F0020101600168E5
:1024B00001F002010791016841F004010160006828
:1024C000022600F00400079001AA012503270096C8
:1024D000DFF8C09082E8B0006946484600F08EFA06
:1024E0006803CDE9000569462B4800F087FAFFF73D
:1024F000D7FADFF8A880C8F8B4420A2000F0F6F94D
:10250000C8F8B4520A2000F0F1F903970096CDE91B
:1025100001546946484600F071FA642000F0E6F97B
:10252000042205A948F2401000F04EF88DF818403A
:1025300005A91BA0FDF7A6FF1CA105A8FEF724FA1C
:1025400008BB48F240058DF81460012205A9284611
:1025500000F048F9012205A9E81D00F035F89DF8C2
:102560001410602905D213A0FDF78CFF012000F0A4
:1025700011F90A2000F0BAF98DF81440012205A9DA
:10258000284600F02FF909B00020BDE8F0830000D4
:10259000303802400004024000080240000041427E
:1025A0004354502049443A25730D0A0039313437D9
:1025B0000000000044656661756C74205665723ACF
:1025C00025640D0A000000002DE9F04115460E4675
:1025D0000446FFF709FB2820FFF7E2FAFFF73EFB6E
:1025E000200AFFF7DDFAFFF739FBE0B2FFF7D8FA70
:1025F000FFF734FBFFF7F8FA2920FFF7D1FAFFF7CE
:102600002DFB00246F1E09E0BC4201D0012000E038
:102610000020FFF797FA3055641CE4B2AC42F3D3C4
:10262000BDE8F041FFF7FEBA2DE9F147554E002411
:102630004FF00A0A307885B0401CC0B2B0FBFAF205
:102640000AFB1201504DA046307009B10A286ED223
:1026500048F24E19012205A94846FFF7B5FF0027A9
:102660008DF8007001226946484600F0BBF89DF8DD
:10267000140001075BD000F00F01062957D2FF209C
:1026800088408DF80000C04395F8209040F0C000CD
:1026900085F82000A889A882E88AE8834FF001081D
:1026A00095F8201008FA04F0014225D0374804229A
:1026B00001A930F81400FFF787FF95F830009DF866
:1026C0000510C0079DF8040000EB012105EB440054
:1026D0000AD0C1829DF806109DF8072001EB022167
:1026E000C1F54871818107E081819DF806109DF850
:1026F000072001EB0221C182641CE4B2052CCFD378
:102700002349AA894FF001080B8828469A4203D82A
:10271000C28A49888A4209D99DF8141001F00F0134
:1027200001290BD9C1898181018BE98237709DF81C
:10273000140000F08F0080280AD01AE0818A81817D
:10274000C18BC18280218DF8141085F82090EEE7AE
:1027500095F82000010603D520F0800085F82000C0
:102760004FF6FF7025F80C0F6881287D00F0E0001F
:1027700028753078F02801D986F800A006B04046C8
:10278000BDE8F087E7020020F002002090D70308A0
:10279000944D002008B500218DF800108DF801003F
:1027A0000F4800BF435C9DF80020491C1A44C9B281
:1027B0008DF80020B829F5D3D0B2C043401C8DF865
:1027C0000000B822064948F2470000F00BF8022248
:1027D000694648F2FF0000F005F8002008BD00003F
:1027E000D8D603082DE9F04116460F4604460025C9
:1027F000FFF7FAF92820FFF7D3F9FFF72FFA200A9D
:10280000FFF7CEF9FFF72AFAE0B2FFF7C9F9FFF7B1
:1028100025FA002408E0385DFFF7C2F9FFF71EFA39
:10282000050003D1641CE4B2B442F4D3FFF7FAF913
:102830002846BDE8F0812DE9F0410446876D00F09F
:10284000E7F9064694F835000025022806D08020D6
:10285000606584F834500120BDE8F081206801688B
:1028600021F0160101602068416921F08001416179
:10287000206C08B9A06C20B12068016821F0080123
:1028800001602068016821F0010101600CE000F0A6
:10289000BFF9801B052807D920206065032084F834
:1028A000350084F83450D7E720680068C007EED1BF
:1028B00094F85C103F208840B860012084F835000F
:1028C00084F834500020C7E790F83510022903D06F
:1028D0008021416501207047052180F8351000688E
:1028E000016821F0010101600020704770B50446C5
:1028F00000F08EF90546601C02D0044800780444BC
:1029000000F086F9401BA042FAD370BD2C000020D5
:102910002DE9F04186B014216846FEF70DF82048F5
:102920000168002939D1012101601E480024016895
:1029300041F00101016000684FF4805800F001008F
:102940000C27CDF80080CDE90470032602250396FC
:10295000CDE901546946144800F050F84FF68070F4
:10296000CDE9000502AA694682E8D0000F4800F0D0
:1029700045F84CF23370CDE9000502AA694682E8B9
:10298000D0000B4800F03AF802AA694682E8D0006D
:10299000CDE90085074800F031F806B0BDE8F081C8
:1029A0002400002038380240001402400010024089
:1029B000000C02400018024070B54FF40071084C42
:1029C0004D00042801D0082808D1204600F013F952
:1029D00029462046BDE8704000F00DB970BD0000EA
:1029E00000140240044910B50A68024202D008608F
:1029F000FFF7E2FF10BD0000143C01402DE9F84F45
:102A0000DFF8BCA10022012503264FF00F090AF1CF
:102A1000040BAAF1040E00BF0B6805FA02F4234070
:102A2000A34270D10F7907F00307012F01D0022FC5
:102A300016D187684FEA420806FA08FC27EA0C0715
:102A4000D1F80CC00CFA08FC4CEA070CC0F808C01E
:102A50004768A7430C79C4F3001494403C43446096
:102A60000C79E443A4070AD0C4684FEA420C06FA82
:102A70000CF7BC438F6807FA0CF72743C7600C7943
:102A800004F00304022C12D1D40800EB840CDCF80F
:102A900020405707FF0E09FA07F824EA0804D1F886
:102AA000108008FA07F848EA0408CCF82080046887
:102AB0004FEA420C06FA0CF7BC430F7907F0030704
:102AC00007FA0CF7274307604C6814F4403F70D0B6
:102AD0003C4C276847F480472760246822F00307AE
:102AE00004F480440094384C07EB040CDCF80848EC
:102AF00097074FEA177809FA08F7BC43334FB842F3
:102B000002D1002724E054E0314FB84201D101271F
:102B10001EE0304FB84201D1022719E02E4FB842D3
:102B200001D1032714E02D4FB84201D104270FE053
:102B30002B4FB84201D105270AE02A4FB84201D1F4
:102B4000062705E0284FB84201D1072700E00827F3
:102B500007FA08F72743CCF80878DAF80040574618
:102B6000D1F804C09C435FEACC2C00D51C433C60E8
:102B7000DBF800405F46D1F804C09C435FEA8C2C30
:102B800000D51C433C60DEF800407746D1F804C015
:102B90009C435FEA8C3C00D51C433C60084F083FD7
:102BA0003C68D1F804C09C435FEACC3C00D51C4390
:102BB0003C60521C102AFFF42FAFBDE8F88F0000D4
:102BC000083C01404438024000300140000002400F
:102BD0000004024000080240000C024000100240C5
:102BE0000014024000180240001C02400069084026
:102BF00000D001207047426921EA02030A4043EAFB
:102C00000241816170470AB1816170470904FBE7A5
:102C100001488068704700002C000020024881684D
:102C200002781144816070472C0000200B4810B5D9
:102C3000016841F400710160016841F48061016044
:102C4000016841F480710160032000F09FF80F20BB
:102C500000F006F800F050F8002010BD003C0240E3
:102C600030B505461F4887B00024016841F01001C7
:102C70000160006806A900F01000009001A800F0B3
:102C8000CFF90498A8B100F0F1F940001649174AAD
:102C9000B0FBF1F11648491E026040F2E732C0E98C
:102CA0000324C0E90114846100F073FF040003D021
:102CB00015E000F0DBF9E9E70D4800F099FF0400AA
:102CC0000DD1362000F034F8102D07D2002229460D
:102CD000362000F03BF80748056000E0012407B00B
:102CE000204630BD4038024040420F0000100040F6
:102CF00028040020300000200C4882B0016841F414
:102D000080410160006800F4804000900748001F87
:102D1000016841F0805101600068002200F080509D
:102D200000900F21901E02B000F010B8443802400D
:102D3000002809DB00F01F020121914040098000BA
:102D400000F1E020C0F8001170470000F0B40E4B15
:102D50001B680C46C3F30223C3F10705042D00D9F9
:102D60000425191D072901D2002300E0DB1E0126DE
:102D700006FA05F1491E214099409E40761E1640F4
:102D80003143F0BC05F0C3BE0CED00E0064900F095
:102D9000070208684FF6FF03184040EA0220034A82
:102DA00010430860704700000CED00E00000FA05D9
:102DB0002DE9F843054600684FF00109C1074FF0BF
:102DC000000601D1400727D5DFF80C81C8F86860FC
:102DD000FFF71EFF0746414C05E000BFFFF718FF55
:102DE000C01B022857D820680001F7D46868810109
:102DF000287A41EA0070394984310860C8F868903F
:102E0000FFF706FF074604E0FFF702FFC01B02289A
:102E100041D820680001F7D52878800752D52F487F
:102E20004030016841F08051016000682C4C00F096
:102E300080500090206840F480702060FFF7E8FE2A
:102E4000074604E0FFF7E4FEC01B022823D82068F1
:102E5000C005F7D5214C7034206810F4407020D0A4
:102E6000A98901F4407181421BD020681D4920F4DA
:102E70004070C1F800900E6020602068C00710D03C
:102E8000FFF7C6FE064641F2883707E0FFF7C0FEAF
:102E9000801BB84202D90320BDE8F8832068800770
:102EA000F4D5E9680D48C1F301220830032A0BD09C
:102EB000016821F4F81101602068A989C1F30B01B0
:102EC000084320600020E7E70268074B22F4F8126D
:102ED00019400A430260EFE7000047420038024011
:102EE00000700040400E4742FFFCFF0F2DE9F04705
:102EF0000E46050065D0DFF81481D8F80000F7B25F
:102F000000F00700B04207D288F80070D8F800003F
:102F100000F00700B04254D128683D4C810712D51B
:102F2000400703D5206840F4E0502060287800076F
:102F300003D5206840F4604020602068A96820F034
:102F4000F000084320602878C0072DD03049686819
:102F50000839012812D0022813D0032811D009689B
:102F6000890700292DDA216821F00301014321603E
:102F7000FFF74EFE814641F2883A0EE00968890368
:102F8000EFE709688901ECE7FFF742FEA0EB0901D2
:102F9000514502D90320BDE8F0872068696800F038
:102FA0000C00B0EB810FEFD1D8F80010404601F0D3
:102FB0000701B14207D90770006800F00700B0426E
:102FC00001D00120E7E72878400705D52068E968A7
:102FD00020F4E050084320602878000706D52068D8
:102FE000296920F4604040EAC100206000F05EF8EA
:102FF0002168084AC1F30311515CC84006490860C2
:1030000006480068FFF72CFE0020C4E7003C0240A1
:10301000083802402010030838000020300000204B
:103020000F2202600C4A136803F003034360136825
:1030300003F0F0038360136803F4E053C360126885
:103040004FF4E05303EAD20202610448006800F042
:10305000070008607047000008380240003C02404A
:103060000148006870470000380000200448054906
:1030700000680968044AC1F38221515CC840704766
:103080003800002008380240301003080448054981
:1030900000680968044AC1F34231515CC840704776
:1030A000380000200838024030100308154810B5D9
:1030B000006810F00C02144813D04110042A0FD0FD
:1030C000082A0ED10F4C241F2268236802F03F0209
:1030D0005B0207D52068C0F38810A0FB010106E061
:1030E000084610BD2168C1F38811A1FB000100232F
:1030F000FDF751F92168C1F30141491C4900B0FBBA
:10310000F1F010BD083802400024F4002DE9F84F1A
:1031100004006ED02078DFF84C93C007A9F10405B5
:103120004AD009F104000168C1F38101012908D0E6
:103130000068C0F3810002280AD1D9F800004002DB
:1031400006D52868800337D560680028E1D033E0D1
:103150006068B0F5803F10D0B0F5A02F286810D07F
:1031600020F480302860286820F48020286060687F
:10317000A8B1FFF74DFD06460DE0286840F4803009
:10318000F4E740F480202860F7E700BFFFF740FD38
:10319000801B642873D828688003F7D50CE0FFF7FC
:1031A00037FD064605E000BFFFF732FD801B6428AF
:1031B000F0D828688003F7D42078DFF8AC82800745
:1031C0004FF0000A3ED5A748001D016811F00C0F12
:1031D00008D00068C0F3810002280BD1D9F80000A4
:1031E000400207D42868800716D5E068012800D17E
:1031F00012E033E1E068B8B10120C8F80000FFF741
:1032000007FD064605E000BFFFF702FD801B022810
:10321000C0D828688007F7D52868216920F0F80011
:1032200040EAC10028600DE0C8F800A0FFF7F0FCFC
:10323000064604E0FFF7ECFC801B02281FD8286834
:103240008007F7D42078000722D5864F8748616928
:10325000703771B101210160FFF7DAFC064604E026
:10326000FFF7D6FC801B022809D838688007F7D5FD
:103270000EE0C0F800A0FFF7CBFC064605E082E0B8
:10328000FFF7C6FC801B02287DD838688007F7D47A
:103290002078400768D5DFF8CCB100270BF13C0B54
:1032A000DBF80000C0000BD4DBF8001041F08051C7
:1032B000CBF80010DBF80000012700F080500090F0
:1032C0006B4E3068C00510D4306840F480703060B8
:1032D000FFF79EFC009005E0FFF79AFC0099401A6A
:1032E000022850D83068C005F6D55E4EA0686C360E
:1032F00001280FD00528306810D020F00100306080
:10330000306820F004003060A068B8B1FFF780FC9E
:1033100000900FE0306840F00100F4E740F0040056
:103320003060F7E7FFF774FC0099411A41F28830EA
:10333000814266D830688007F4D50EE0FFF768FC5C
:10334000009007E0FFF764FC0099411A41F28830D1
:10335000814256D830688007F4D42FB1DBF80010D2
:1033600021F08051CBF80010A069C8B33D49091D78
:103370000968C1F3810102294AD00228504607D0CA
:10338000C8F8600000E03CE0FFF742FC04463BE088
:103390004746C8F86000FFF73BFC064605E000BF63
:1033A000FFF736FC801B02282BD828688001F7D451
:1033B000D4E907010843A16A2E4A490802EB0141FA
:1033C000626A41EA8211084394F82C1040EA0161D4
:1033D000C9F8001001203866FFF71AFC044606E021
:1033E0003EE000BFFFF714FC001B022809D8286844
:1033F0008001F7D534E000BFFFF70AFC001B02286C
:1034000002D90320BDE8F88F28688001F4D427E0B2
:103410000128F7D0D9F80000E26900F48001914258
:103420001CD1226A00F03F01914217D147F6C071CA
:10343000626A0140B1EB821F10D1A26A4FF0FF33E4
:1034400000F4403103EB5202B1EB024F06D194F885
:103450002C1000F07060B0EB016F01D00120D1E7BB
:103460000020CFE70438024000004742800E474268
:10347000007000400000FFFF704700002DE9F84792
:103480008A4639494FF4FA4C91460F684FF47A72E4
:10349000B7FBFCF151430091017F012962D0012566
:1034A0000577022141770268CA21516202685321DF
:1034B000516201688A684FF0000352054FF0FF0423
:1034C0004FF0030608D5009AB2F10108CDF800804C
:1034D00018D3CA685207F6D48A6822F480628A60D8
:1034E0000168CA6802F0800262F49062CA60B7FBA9
:1034F000FCF14FF47A72514300910168009A571E13
:10350000009705D24C62467703770320BDE8F88721
:10351000CA685207F2D58A6822F007028A600168F9
:103520008A6842EA09028A600268C2F814A00F4958
:103530000A6842F480020A600C4908310A6842F4C1
:1035400080020A6001688A6842F480428A600168E9
:103550008A6842F480628A6001684C62457703772A
:103560000020D3E70220D1E738000020003C0140D2
:1035700010B592B00446002201A900F0A5F8002879
:103580001CD1002206A9204600F07CF89DF81A0004
:103590009DF81B2000909DF8193009A107A802F59D
:1035A000FA62FCF77BFF9DF8060000909DF805305D
:1035B0009DF8042008A107A8FCF770FF12B010BD09
:1035C0005254432044617465203D202534642D25E8
:1035D00032642D25326400005254432054696D65D5
:1035E000203D202532643A2532643A2532640000B9
:1035F00010B504460068C068400509D52046FFF7AD
:10360000B7FF2068C16801F0800161F49061C1607A
:1036100003494FF4800008600120607710BD00006E
:10362000143C01407047000010B5044600688168F2
:10363000C9040CD5C068C00509D52046FFF7F2FFC4
:103640002068C16801F0800161F4C071C160206828
:10365000816889040CD5C068800509D52046FFF72C
:103660000BFF2068C16801F0800161F42071C16026
:1036700003494FF4003008600120607710BD00005E
:10368000143C014010B500680B4641680D480140EC
:10369000080CD870C1F304245C7001F03F049C70E6
:1036A000C1F34231197052B904F036F9D870587824
:1036B00004F032F95870987804F02EF998700020D0
:1036C00010BD00003FFFFF0010B50B460168896A7E
:1036D000596001680969C1F30E01996000680168C9
:1036E0000D480140C1F305401870C1F306245C7019
:1036F00001F07F049C70890DD97052B904F00CF967
:103700001870587804F008F95870987804F004F9A3
:103710009870002010BD00007F7F7F0010B504006E
:1037200002D0607F10B106E0012010BD002020779C
:10373000204600F039F8022060772168CA204862EC
:10374000216853204862204604F0FCF830BB206812
:103750008168144A1140816021688868626810435A
:10376000D4E904231A43104388602168E0680861A3
:1037700020680169228941EA02410161204604F082
:1037800005F958B921680A6C22F480220A6421687C
:103790000A6CA3691A430A64012161772268FF2138
:1037A000516210BDBFFF8FFF1FB500210091019135
:1037B000029103910068104988421CD102200090B8
:1037C000000203906846FFF7F3FA08B1FEF7AFFB7B
:1037D0000A4901200860002206210320FFF7B6FAFB
:1037E0000320FFF7A5FA002205212920FFF7AEFAF2
:1037F0002920FFF79DFA1FBD002800403C0E4742DC
:103800002DE9F843644E03464FF4FA4730680C46FE
:10381000B0FBF7F0791148430090187F012877D06A
:103820004FF0010983F81C90022058771868002592
:10383000002A80684FEA40606CD0002800DBE57009
:10384000A078227894F803C040EA02406278E169E7
:10385000120242EA8C52104394F8202040EA02609F
:1038600008436169A26908436168D3F800C0114345
:10387000CA22CCF82420D3F800C05322CCF824204C
:10388000626AFF24B2F5807F1A684FF0030C5CD0A7
:10389000D2F8088028F40078C2F808801A68D2F8B4
:1038A0000C8008F0800868F42078C2F80C80326838
:1038B0004FF47A76B2FBF7F2724300921A68009ED8
:1038C000771E009761D3D668B607F8D510621868DE
:1038D00081641868816841F40071816018688168AA
:1038E00041F4005181602D48016841F400310160CC
:1038F0002A480830016841F40031016018684462C8
:1039000083F81D901D770020BDE8F88300E001E0FA
:103910000220F9E7002800DBE570207804F005F8C4
:103920000204607804F001F842EA0022A07803F073
:10393000FCFF0243E07842EA805294F8200003F052
:10394000F4FF42EA0060E1698AE7966826F480762F
:1039500096601A68D66806F0800666F4C076D6606F
:103960001A68009E771E00970FD3D668F607F8D026
:10397000D061186841641868816841F48071816081
:103980001868816841F48051ACE7546283F81DC027
:103990001D770320B8E7000038000020003C0140FC
:1039A00070B50446007F0B46012819D00126267702
:1039B00002206077B2B19878D97840EA014558780A
:1039C0001978000240EA413005432168CA20486264
:1039D000216853204862204603F0B4FFD0B122E0B2
:1039E000022070BD5878C10603D500F0EF000A3000
:1039F0005870D87803F099FF0204587803F095FFC7
:103A000042EA0022987803F090FF0243187842EAD5
:103A10004035DAE70748054020684560204603F056
:103A2000B5FF00B966772268FF2151620021217736
:103A300070BD00003FFFFF002DE9F0410446007F0C
:103A40000D46012823D04FF0010884F81C80022085
:103A500060772068002780684FEA4060D2B1002874
:103A600000DBEF70A878297840EA01466878E978A9
:103A7000000240EA815006432168CA20486221685A
:103A800053204862204603F05DFFB8B12CE00220CD
:103A9000BDE8F081002800DBEF70287803F045FFD7
:103AA0000204687803F041FF42EA0022A87803F09C
:103AB0003CFF0243E87842EA8056DDE70D480640C5
:103AC000206806602068816821F480218160D5E942
:103AD0000301084321688A6810438860204603F088
:103AE00055FF08B984F81D802268FF2151622777AD
:103AF000CEE700007F7F7F0070B504460068C16894
:103B000021F0A001C160FFF783F805464FF47A76F3
:103B100007E000BFFFF77CF8401BB04201D903204B
:103B200070BD2068C0688006F4D5002070BD70B5F7
:103B300015460E46040003D094F8490010B107E082
:103B4000012070BD002084F84800204600F01DF8D8
:103B500004F108012068FEF70BFA3146A2682068DC
:103B6000FEF73AFAD4E901022946236BFEF7E2F99F
:103B70002168A06851F8202042F0010241F820207D
:103B8000012084F84900002070BDFEF7C1BE7047D7
:103B9000704710B5040003D094F83D0010B107E061
:103BA000012010BD002084F83C00204600F01EF8E3
:103BB000022084F83D00211D206803F06BFF0120E6
:103BC00084F8460084F83E0084F83F0084F8400002
:103BD00084F8410084F8420084F8430084F84400EB
:103BE00084F8450084F83D00002010BD70470000B7
:103BF00090F83D10012901D001207047022180F882
:103C00003D100168CA6842F00102CA6000681149AB
:103C1000884214D0B0F1804F11D00F4988420ED0A5
:103C20000E4988420BD00E49884208D00D4988427F
:103C300005D00D49884202D00C49884204D18168E0
:103C400001F00701062903D0016841F0010101607C
:103C500000207047000001400004004000080040C0
:103C6000000C0040000401400040014000180040EA
:103C7000704770B50446006801694FF00005C943FC
:103C8000890715D4C168C943890711D4E91E0161A8
:103C900001202077206880698007204602D0FFF746
:103CA000E7FF04E000F098F8204600F096F825774A
:103CB00020680169C943490717D4C168C943490746
:103CC00013D46FF00401016102202077206880691D
:103CD00010F4407F204602D0FFF7CAFF04E000F056
:103CE0007BF8204600F079F8257720680169C94300
:103CF000090716D4C168C943090712D46FF0080137
:103D00000161042020772068C0698007204602D026
:103D1000FFF7AEFF04E000F05FF8204600F05DF82A
:103D2000257720680169C943C90617D4C168C9430A
:103D3000C90613D46FF010010161082020772068B4
:103D4000C06910F4407F204602D0FFF791FF04E0E5
:103D500000F042F8204600F040F82577206801691D
:103D6000C943C90708D1C168C943C90704D1891E1D
:103D70000161204600F032F820680169C943090654
:103D800009D4C168C943090605D46FF080010161F7
:103D90002046FFF7FCFE20680169C943490609D4A3
:103DA000C168C943490605D46FF04001016120464E
:103DB00000F01EF820680169C94389060BD4C16868
:103DC000C943890607D46FF0200101612046BDE890
:103DD0007040FFF7DDBE70BD704770470068034953
:103DE000884201D1FEF71ABF704700000010004062
:103DF00070477047704710F83D1F40780843704780
:103E0000F8B5016804460868CA684B6910F00F0FDE
:103E10004FF0000559D003F0010602F490773743C4
:103E200065D0C10705D0D10503D5216C41F0010152
:103E30002164410705D5D90703D0216C41F0020167
:103E40002164810705D5D90703D0216C41F0040115
:103E50002164010707D502F02001314303D0216C12
:103E600041F008012164216C00293AD0800604D574
:103E7000900602D5204604F016FD20684069216CAA
:103E8000C0F38010090700D460B3204604F0E4FCBE
:103E900020684069400621D52068143050E8001F92
:103EA00021F0400140E80012002AF5D1A06BA8B132
:103EB0006C490165A06BFEF707FD002811D0A06BCF
:103EC000016D01B0BDE8F040084783060FD59306A9
:103ED0000DD52046BDE8F84004F0E5BC2046FFF7CC
:103EE00089FFF8BD2046FFF785FF2564F8BD266BE6
:103EF0002023012E79D1C60677D5D60675D5086858
:103F0000486800904869400640D5A16B0868406841
:103F10000004000CEAD0A28D8242E7D9E085C8698E
:103F2000B0F5807F2DD020680C3050E8001F21F4C0
:103F3000807140E80012002AF5D12068143050E862
:103F4000001F21F0010140E80012002AF5D120688D
:103F5000143050E8001F21F0400140E80012002A10
:103F6000F5D184F83E30256320680C3050E8001FFE
:103F700021F0100140E80012002AF5D1A06BFEF7F5
:103F80005AFCA08DE18D401A81B229E0A08DE18D0F
:103F9000401A81B2E08D0028A8D00029A6D0206860
:103FA0000C3050E8002F22F4907240E80026002EDA
:103FB000F5D12068143050E8002F22F0010240E8CB
:103FC0000026002EF5D184F83E30256320680C30A1
:103FD00050E8002F22F0100240E80023002BF5D11A
:103FE0002046FFF706FFF8BDFFE705062BD51506AF
:103FF00029D594F83D002128F5D1A068B0F5805F5F
:1040000001D12069B0B1206A411C21622168007889
:104010004860E08C401E0004000CE084E3D120687E
:10402000C16821F08001C1602068C16841F0400191
:10403000C160D8E7206A0088C0F308004860206AA1
:10404000801C2062E5E74006CDD55006CBD5CA6876
:10405000204622F04002CA6084F83D3000F0B6F8F5
:10406000C1E700004988000870B5040004D094F846
:104070003D00002510B106E0012070BD84F83C50E1
:10408000204600F023F8242084F83D002068C16811
:1040900021F40051C160204604F066FC20680169EB
:1040A00021F4904101612068416921F02A014161B8
:1040B0002068C16841F40051C1602564202084F863
:1040C0003D0084F83E00002070BD000010B500687F
:1040D0001A4986B088422FD11948016841F0010180
:1040E0000160006800F00100059015481430016877
:1040F00041F0100101600068012100F010000590FE
:104100004FF4007000900220CDE9010103900720D8
:104110000C4C049069462046FEF770FC2015009078
:1041200069462046FEF76AFC2520FEF701FE0322C1
:1041300011462520FEF70AFE06B010BD0010014012
:10414000303802400000024090F83E30202B0ED163
:1041500059B152B190F83C30012B08D0012380F8BE
:104160003C300023036304F085BC0120704702202B
:104170007047000030B50068114988420CD11148E1
:1041800041880A0408D402464C0412784FF0000318
:1041900006D50A2A01D0438030BD41F400410DE02C
:1041A0000D2A09D0C1F30D04074D491C89B22A55C7
:1041B0004180C729EFD830BD41F48041418030BDF6
:1041C0000010014024030020103001207047FEE75A
:1041D00070B50D4C0025C4F8A0520C48016821F4BC
:1041E00040210160016841F480210160C4F8A452BB
:1041F000012004F52874FEF779FB01202060FEF70A
:1042000075FB256070BD0000008040420004024044
:104210000E4810B5016886B041F0020101600068E7
:10422000012400F0020005904FF44070CDE9000435
:104230000220CDE9024069460548FEF7DFFB05484C
:10424000C0F8A442C0F8A04206B010BD3038024009
:10425000000402400080404270B50D4C0025C4F8B7
:10426000A0520C48016821F440210160016841F42A
:10427000802101600126C4F8A462304604F5287448
:10428000FEF734FB26600120FEF730FB256070BD91
:1042900000804042000402402DE9F0478146164864
:1042A0000024016821F44021016001680160134E7F
:1042B000254627464FF00108C6F8A0720120FEF7F8
:1042C00015FBC6F8A0826006040ED6F8240208B1D9
:1042D000641CE4B20120FEF709FB6D1CEDB2082D51
:1042E000EAD3B9F1000F04D0FFF772FF2046BDE812
:1042F000F087FFF7B1FFF9E7000402400080404279
:104300002DE9F04106461448016821F4402101607E
:10431000016841F480210160104C0027C4F8A072AC
:104320003D464FF00108F009C4F8A4027006060EDD
:104330000120FEF7DBFAC4F8A0820120FEF7D6FACE
:10434000C4F8A0720120FEF7D1FA6D1CEDB2082D61
:10435000E9D3BDE8F0810000000402400080404243
:1043600070B50D48016821F440210160016841F4F5
:1043700080210160094C0120C4F8A402C4F8A00205
:1043800004F52874FEF7B2FA002565600120FEF7F7
:10439000ADFA256070BD000000040240008040427C
:1043A0000D4810B5016821F440210160016841F415
:1043B00080210160094C0020C4F8A002C4F8A402C6
:1043C000012004F52874FEF791FA01202060606056
:1043D000BDE81040FEF78ABA000402400080404267
:1043E00070B512480024016821F440210160016881
:1043F00001600F4D0126C5F8A4623046FEF776FA3B
:10440000C5F8A0620120FEF771FA07E0641CE4B26F
:10441000FA2C03D9FFF7C4FF012070BDD5F82402A0
:104420000028F3D1C5F8A00270BD000000040240CE
:104430000080404270B50B490646002408884D882C
:1044400021464543204602F085FD02F0EDFEB0B264
:104450004FF0D84103E000BFA1F88000641CAC42DB
:10446000FAD370BD944D00202DE9F0478246A2EBAF
:104470000A00401C0E4685B2981B401C87B20024DF
:104480004FF0D849DDF8208016E0301981B250464F
:1044900002F060FD02F0C8FE0020494608E000BFBF
:1044A00004FB050338F81320A1F88020401C80B2DB
:1044B000A842F5D3641CA4B2BC42E6D3BDE8F087A1
:1044C0002DE9F04F2B492C260A46887192884FF42B
:1044D000305A4FF4285B4FF4487541F6631E2B2782
:1044E0004FF02A0C4FF0F00845F210594FF4A07429
:1044F0004FF4F073B8B10C80A1F802804A4532D174
:10450000A1F808A0A1F80AB0380288810D804B807C
:10451000A2F5A640103801D10B804C80BDE8F04FC9
:10452000002002F057BCA1F800804C804A4507D11A
:10453000A1F808A0A1F80AB04FF42C50888105E03A
:1045400072450E8105D14F81A1F80CC00B804D80C2
:1045500002E0A1F80AC08F81A2F5A6401038DDD193
:104560000C804B80DAE70E81A1F80AC072458F817A
:10457000CCD0CDE7944D00202DE9FE4F161ACDE9A1
:1045800000104FF000085D1A47464FF0FF30002E34
:1045900002DD4FF0010102E003D14FF000018B4634
:1045A00002E08346C6F10006002D02DD4FF0010057
:1045B00002E003D14FF00000824602E08246C5F1DE
:1045C0000005AE4201DD344600E02C46601C4FF091
:1045D0000009029018E0009881B2019880B200F0C2
:1045E00019F8B0442F44A04504DD0198A8EB040855
:1045F00058440190A74203DD00983F1B50440090AF
:1046000009F101001FFA80F902998945E3DDBDE84F
:10461000FE8F000000B502F09DFC02F005FE03488D
:104620004FF0D8410088A1F8800000BDBC000020F8
:104630002DE9FC4F80460025144603200F46A0EBD1
:10464000440649E0381B81B208EB050A01901FFAC5
:104650008AF0FFF7DFFF781B81B208EB04090090B6
:104660001FFA89F0FFF7D6FF07EB050B1FFA8BF156
:104670001FFA89F0FFF7CEFF07EB04091FFA89F153
:104680001FFA8AF0FFF7C6FFA8EB050A1FFA89F1A7
:104690001FFA8AF0FFF7BEFFA8EB04091FFA8BF19F
:1046A0001FFA89F0FFF7B6FF019881B21FFA8AF06E
:1046B000FFF7B0FF009881B21FFA89F0FFF7AAFF59
:1046C0006D1C002E03DA06EB8506B61D04E0281BE0
:1046D00006EB8006641E0A36A542B3DDBDE8FC8FFA
:1046E0002DE9F0419046314A0D460446060A91886C
:1046F00010462F0A4089A1F5AA43103B0FD0A1F51F
:10470000C853633B24D002F082FD304602F073FDB3
:10471000E0B202F070FD908902F079FD36E002F01F
:1047200076FD304602F067FD5089401C80B202F0F1
:104730006EFDE0B202F05FFD908902F068FD384640
:1047400002F059FD9089401C80B202F060FD20E02B
:10475000917919B91188091B491E8CB202F057FDD5
:10476000260A304602F047FDE0B202F044FD304632
:1047700002F041FDE0B202F03EFD908902F047FDFB
:10478000384602F038FDE8B202F035FD384602F056
:1047900032FDE8B202F02FFD4FF0D840118920F829
:1047A0007E1FA0F80280BDE8F0810000944D00203B
:1047B0002DE9F04FFE4895B00024016841F0020158
:1047C000016000684FF4004B00F0020007900120E8
:1047D000CDE910B012900320139010A9F548FEF710
:1047E0000DF9F5484FF020416A460160F3494160F8
:1047F0000621C0E902141021C0E9044184610902C4
:10480000C461C0E909418900C0E90B4189014463E1
:10481000C0E90E410F20CDE909043C200B900F9414
:104820000920CDE9000408200290039409A9069408
:10483000E148FFF77CF93220FEF758F8D32002F068
:10484000E6FC02F095FADC4C5034A08002F090FABD
:104850002146888002F08CFA4FF6FF7A21460AEA58
:104860000020888002F084FA214649F24137898885
:1048700045F210380843214645F21056888041F62B
:10488000631947F28975B84279D0042002F0BFFC61
:1048900002F06EFAA08002F06BFAA08002F068FAD3
:1048A0000AEA0020A08002F063FAA1880843A0F57C
:1048B0000541A08052394AD0A84260D0D42002F0ED
:1048C000A6FC02F055FAA08002F052FAA08002F095
:1048D0004FFA0AEA0020A08002F04AFAA1880843B1
:1048E000A08040454BD055214FF4704002F0A6FC0B
:1048F000AA214FF2010002F0A1FC52214FF2020066
:1049000002F09CFC08214FF2030002F097FC012109
:104910004FF2040002F092FC4FF4454002F077FCA5
:1049200002F026FA0AEA0020A0804CF2015002F0C0
:104930006EFC02F01DFAA1880843A0800520FDF757
:10494000D5FFA088584504D1A68001F091B9A58073
:104950003CE1B04213D0A12002F059FC02F008FA69
:10496000A08002F005FA0AEA0020A08002F000FA16
:10497000A1880843A0F5AE41A08061397ED0A0880F
:10498000B8427CD1CF2002F042FC002002F033FC80
:10499000C12002F030FC302002F02DFCED2002F0AE
:1049A00036FC642002F027FC032002F024FC1220D5
:1049B00002F021FC812002F01EFCE82002F027FC1E
:1049C000852002F018FC102002F015FC7A2002F07D
:1049D00012FCCB2002F01BFC392002F00CFC2C2036
:1049E00002F009FC002002F006FC342002F003FC77
:1049F000022002F000FCF72002F009FC202002F067
:104A0000FAFBEA2002F003FC002002F0F4FB002095
:104A100002F0F1FBC02002F0FAFB1B2002F0EBFBDE
:104A2000C12002F0F4FB012002F0E5FBC52002F0FA
:104A3000EEFB302002F0DFFB302002F0DCFBC72071
:104A400002F0E5FBB72002F0D6FB362002F0DFFBD8
:104A5000482002F0D0FB3A2002F0D9FB552002F0AA
:104A6000CAFBB12002F0D3FB002002F0C4FB1A20E5
:104A700002F0C1FBB62002F0CAFB01E0A0E0A3E017
:104A80000A2002F0B8FBA22002F0B5FBF22002F0EF
:104A9000BEFB002002F0AFFB262002F0B8FB012095
:104AA00002F0A9FBE02002F0B2FB0F2002F0A3FB12
:104AB0002A2002F0A0FB282002F09DFB082002F033
:104AC0009AFB0E2002F097FB082002F094FB542082
:104AD00002F091FBA92002F08EFB432002F08BFB39
:104AE0000A2002F088FB0F2002F085FB002002F074
:104AF00082FB002002F07FFB002002F07CFB002004
:104B000002F079FBE12002F082FB002002F073FB4F
:104B1000152002F070FB172002F06DFB072002F059
:104B20006AFB112002F067FB062002F064FB2B20D9
:104B300002F061FB562002F05EFB3C2002F05BFBC2
:104B4000052002F058FB102002F055FB0F2002F068
:104B500052FB3F2002F04FFB3F2002F04CFB0F20A6
:104B600002F049FB2B2002F052FB002002F043FB35
:104B7000002002F040FB012002F03DFB3F2002F04C
:104B80003AFB2A2002F043FB002002F034FB002015
:104B900002F031FB002002F02EFBEF2002F02BFB95
:104BA000112002F034FB7820FDF7A0FEDFE00000CA
:104BB0003038024000040240444D0020040100A0AF
:104BC000A4F8049001F0D9BFA8427CD1112002F0D2
:104BD0001EFB7820FDF78AFE362002F018FB00202D
:104BE00002F009FB3A2002F012FB052002F003FB61
:104BF000B22002F00CFB0C2002F0FDFA0C2002F0B7
:104C0000FAFA002002F0F7FA332002F0F4FA332027
:104C100002F0F1FAB72002F0FAFA352002F0EBFACE
:104C2000BB2002F0F4FA322002F0E5FAC02002F0D4
:104C3000EEFA0C2002F0DFFAC22002F0E8FA0120BE
:104C400002F0D9FAC32002F0E2FA102002F0D3FAFF
:104C5000C42002F0DCFA202002F0CDFAC62002F0D7
:104C6000D6FA0F2002F0C7FAD02002F0D0FAA42022
:104C700002F0C1FAA12002F0BEFAE02002F0C7FA69
:104C8000D02002F0B8FA002002F0B5FA022002F0BB
:104C9000B2FA072002F0AFFA0A2002F0ACFA28209C
:104CA00002F0A9FA322002F0A6FA442002F0A3FA98
:104CB000422002F0A0FA062002F09DFA0E2002F037
:104CC0009AFA122000E055E002F095FA142002F062
:104CD00092FA172002F08FFAE12002F098FAD02021
:104CE00002F089FA002002F086FA022002F083FA2C
:104CF000072002F080FA0A2002F07DFA282002F054
:104D00007AFA312002F077FA542002F074FA472040
:104D100002F071FA0E2002F06EFA1C2002F06BFA1B
:104D2000172002F068FA1B2002F065FA1E2002F03C
:104D300062FA2A2002F06BFA002002F05CFA0020EE
:104D400002F059FA002002F056FAEF2002F053FA6E
:104D50002B2002F05CFA002002F04DFA002002F055
:104D60004AFA012002F047FA3F2002F044FA2920D3
:104D700001F0FEBE40457CD1ED2002F048FA012052
:104D800002F039FAFE2002F036FAEE2002F03FFA85
:104D9000DE2002F030FA212002F02DFAF12002F09C
:104DA00036FA012002F027FADF2002F030FA102054
:104DB00002F021FAC42002F02AFA8F2002F01BFA36
:104DC000C62002F024FA002002F015FAE22002F0D8
:104DD00012FAE22002F00FFAE22002F00CFABF20F1
:104DE00002F015FAAA2002F006FAB02002F00FFA3B
:104DF0000D2002F000FA002002F0FDF90D2002F073
:104E0000FAF9002002F0F7F9112002F0F4F900207D
:104E100002F0F1F9192002F0EEF9002002F0EBF9AE
:104E2000212002F0E8F9002002F0E5F92D2002F03F
:104E3000E2F9002002F0DFF93D2002F0DCF9002069
:104E400002F0D9F95D2002F0D6F9002002F0D3F982
:104E50005D2002F0D0F9002002F0CDF9B12002F07F
:104E6000D6F9802002F0C7F9002002F0C4F98B20A7
:104E700000E0FCE302F0BFF9002002F0BCF996204C
:104E800002F0B9F9002002F0B6F9B22002F0BFF941
:104E9000002002F0B0F9002002F0ADF9022002F08B
:104EA000AAF9002002F0A7F9032002F0A4F90020DB
:104EB00002F0A1F9B32002F0AAF9002002F09BF958
:104EC000002002F098F9002002F095F9002002F08D
:104ED00092F9002002F08FF9002002F08CF90020F6
:104EE00002F089F9002002F086F9002002F083F92F
:104EF000002002F080F9002002F07DF9002002F08D
:104F00007AF9002002F077F9002002F074F900200D
:104F100002F071F9002002F06EF9002002F06BF946
:104F2000002002F068F9002002F065F9002002F08C
:104F300062F9002002F05FF9002002F05CF9002025
:104F400002F059F9002002F056F9B42002F05FF99E
:104F50008B2002F050F9002002F04DF9962002F06B
:104F60004AF9002002F047F9A12002F044F900209C
:104F700002F041F9B52002F04AF9022002F03BF9B3
:104F8000002002F038F9032002F035F9002002F089
:104F900032F9042002F02FF9002002F02CF9B6209B
:104FA00002F035F9002002F026F9002002F023F982
:104FB000B72002F02CF9002002F01DF9002002F0C9
:104FC0001AF93F2002F017F9002002F014F95E20D0
:104FD00002F011F9002002F00EF9642002F00BF942
:104FE000002002F008F98C2002F005F9002002F000
:104FF00002F9AC2002F0FFF8002002F0FCF8DC20FF
:1050000002F0F9F8002002F0F6F8702002F0F3F850
:10501000002002F0F0F8902002F0EDF8002002F0FD
:10502000EAF8EB2002F0E7F8002002F0E4F8DC20D8
:1050300002F0E1F8002002F0DEF8B82002F0E7F814
:10504000002002F0D8F8002002F0D5F8002002F08D
:10505000D2F8002002F0CFF8002002F0CCF80020B7
:1050600002F0C9F8002002F0C6F8002002F0C3F8F0
:10507000BA2002F0CCF8242002F0BDF8002002F0A3
:10508000BAF8002002F0B7F8002002F0B4F8C1200E
:1050900002F0BDF8202002F0AEF8002002F0ABF8DC
:1050A000542002F0A8F8002002F0A5F8FF2002F03A
:1050B000A2F8002002F09FF8C22002F0A8F80A200F
:1050C00002F099F8002002F096F8042002F093F81C
:1050D000002002F090F8C32002F099F83C2002F082
:1050E0008AF8002002F087F83A2002F084F80020C5
:1050F00002F081F8392002F07EF8002002F07BF8FF
:10510000372002F078F8002002F075F83C2002F019
:1051100072F8002002F06FF8362002F06CF80020E0
:1051200002F069F8322002F066F8002002F063F81D
:105130002F2002F060F8002002F05DF82C2002F031
:105140005AF8002002F057F8292002F054F8002005
:1051500002F051F8262002F04EF8002002F04BF841
:10516000242002F048F8002002F045F8242002F044
:1051700042F8002002F03FF8232002F03CF8002023
:1051800002F039F83C2002F036F8002002F033F843
:10519000362002F030F8002002F02DF8322002F024
:1051A0002AF8002002F027F82F2002F024F800202F
:1051B00002F021F82C2002F01EF8002002F01BF86B
:1051C000292002F018F8002002F015F8262002F03D
:1051D00012F8002002F00FF8242002F00CF8002052
:1051E00002F009F8242002F006F8002002F003F88B
:1051F000232002F000F8002001F0FDFFC42002F09F
:1052000006F8622001F0F7FF002001F0F4FF05200E
:1052100001F0F1FF002001F0EEFF842001F0EBFF30
:10522000002001F0E8FFF02001F0E5FF002001F090
:10523000E2FF182001F0DFFF002001F0DCFFA420D6
:1052400001F0D9FF002001F0D6FF182001F0D3FFB4
:10525000002001F0D0FF502001F0CDFF002001F030
:10526000CAFF0C2001F0C7FF002001F0C4FF172087
:1052700001F0C1FF002001F0BEFF952001F0BBFF4F
:10528000002001F0B8FFF32001F0B5FF002001F08D
:10529000B2FFE62001F0AFFF002001F0ACFFC52017
:1052A00001F0B5FF322001F0A6FF002001F0A3FFBE
:1052B000442001F0A0FF002001F09DFF652001F0D7
:1052C0009AFF002001F097FF762001F094FF002064
:1052D00001F091FF882001F08EFF002001F08BFF8C
:1052E000C62001F094FF202001F085FF002001F08E
:1052F00082FF172001F07FFF002001F07CFF0120DA
:1053000001F079FF002001F076FFC72001F07FFF58
:10531000002001F070FF002001F06DFF002001F07F
:105320006AFF002001F067FFC82001F070FF002035
:1053300001F061FF002001F05EFF002001F05BFF43
:10534000002001F058FFC92001F061FF002001F0AA
:1053500052FF002001F04FFF002001F04CFF002021
:1053600001F049FF002001F046FF002001F043FF5B
:10537000002001F040FF002001F03DFF002001F07F
:105380003AFF002001F037FF002001F034FF002039
:1053900001F031FF002001F02EFF002001F02BFF73
:1053A000002001F028FF002001F025FFE02001F09F
:1053B0002EFF162001F01FFF002001F01CFF1C2013
:1053C00001F019FF002001F016FF212001F013FF6A
:1053D000002001F010FF362001F00DFF002001F049
:1053E0000AFF462001F007FF002001F004FF5220D1
:1053F00001F001FF002001F0FEFE642001F0FBFE41
:10540000002001F0F8FE7A2001F0F5FE002001F006
:10541000F2FE8B2001F0EFFE002001F0ECFE99205F
:1054200001F0E9FE002001F0E6FEA82001F0E3FE15
:10543000002001F0E0FEB92001F0DDFE002001F0C7
:10544000DAFEC42001F0D7FE002001F0D4FECA200D
:1054500001F0D1FE002001F0CEFED22001F0CBFE03
:10546000002001F0C8FED92001F0C5FE002001F0A7
:10547000C2FEE02001F0BFFE002001F0BCFEF320E0
:1054800001F0B9FE002001F0B6FEE12001F0BFFE00
:10549000162001F0B0FE002001F0ADFE1C2001F04E
:1054A000AAFE002001F0A7FE222001F0A4FE0020A9
:1054B00001F0A1FE362001F09EFE002001F09BFECF
:1054C000452001F098FE002001F095FE522001F0E9
:1054D00092FE002001F08FFE642001F08CFE00207F
:1054E00001F089FE7A2001F086FE002001F083FEA3
:1054F0008B2001F080FE002001F07DFE992001F05C
:105500007AFE002001F077FEA82001F074FE002052
:1055100001F071FEB92001F06EFE002001F06BFE7B
:10552000C42001F068FE002001F065FECA2001F0F1
:1055300062FE002001F05FFED22001F05CFE002040
:1055400001F059FED82001F056FE002001F053FE74
:10555000E02001F050FE002001F04DFEF32001F0AC
:105560004AFE002001F047FEE22001F050FE052037
:1055700001F041FE002001F03EFE0B2001F03BFE59
:10558000002001F038FE1B2001F035FE002001F064
:1055900032FE342001F02FFE002001F02CFE4420CA
:1055A00001F029FE002001F026FE4F2001F023FE2D
:1055B000002001F020FE612001F01DFE002001F01E
:1055C0001AFE792001F017FE002001F014FE882059
:1055D00001F011FE002001F00EFE972001F00BFEFD
:1055E000002001F008FEA62001F005FE002001F0D9
:1055F00002FEB72001F0FFFD002001F0FCFDC220FB
:1056000001F0F9FD002001F0F6FDC72001F0F3FDE7
:10561000002001F0F0FDD12001F0EDFD002001F0AF
:10562000EAFDD62001F0E7FD002001F0E4FDDD20D9
:1056300001F0E1FD002001F0DEFDF32001F0DBFDD3
:10564000002001F0D8FDE32001F0E1FD052001F08C
:10565000D2FD002001F0CFFD0A2001F0CCFD00209A
:1056600001F0C9FD1C2001F0C6FD002000E0FDE2B4
:1056700001F0C1FD332001F0BEFD002001F0BBFDB3
:10568000442001F0B8FD002001F0B5FD502001F0EC
:10569000B2FD002001F0AFFD622001F0ACFD002062
:1056A00001F0A9FD782001F0A6FD002001F0A3FD86
:1056B000882001F0A0FD002001F09DFD972001F061
:1056C0009AFD002001F097FDA62001F094FD002036
:1056D00001F091FDB72001F08EFD002001F08BFD5F
:1056E000C22001F088FD002001F085FDC72001F0F7
:1056F00082FD002001F07FFDD12001F07CFD002023
:1057000001F079FDD52001F076FD002001F073FD58
:10571000DD2001F070FD002001F06DFDF32001F0AF
:105720006AFD002001F067FDE42001F070FD01201A
:1057300001F061FD002001F05EFD012001F05BFD44
:10574000002001F058FD022001F055FD002001F07D
:1057500052FD2A2001F04FFD002001F04CFD3C20BD
:1057600001F049FD002001F046FD4B2001F043FD12
:10577000002001F040FD5D2001F03DFD002001F022
:105780003AFD742001F037FD002001F034FD842043
:1057900001F031FD002001F02EFD932001F02BFDE2
:1057A000002001F028FDA22001F025FD002001F0DD
:1057B00022FDB32001F01FFD002001F01CFDBE20E2
:1057C00001F019FD002001F016FDC42001F013FDC9
:1057D000002001F010FDCD2001F00DFD002001F0B2
:1057E0000AFDD32001F007FD002001F004FDDD20BB
:1057F00001F001FD002001F0FEFCF32001F0FBFCB4
:10580000002001F0F8FCE52001F001FD002001F08E
:10581000F2FC002001F0EFFC002001F0ECFC002085
:1058200001F0E9FC022001F0E6FC002001F0E3FCBD
:10583000292001F0E0FC002001F0DDFC3C2001F01B
:10584000DAFC002001F0D7FC4B2001F0D4FC002052
:1058500001F0D1FC5D2001F0CEFC002001F0CBFC7A
:10586000742001F0C8FC002001F0C5FC842001F088
:10587000C2FC002001F0BFFC932001F0BCFC002022
:1058800001F0B9FCA22001F0B6FC002001F0B3FC4D
:10589000B32001F0B0FC002001F0ADFCBE2001F00F
:1058A000AAFC002001F0A7FCC42001F0A4FC002009
:1058B00001F0A1FCCD2001F09EFC002001F09BFC3A
:1058C000D32001F098FC002001F095FCDC2001F0D1
:1058D00092FC002001F08FFCF32001F08CFC0020F2
:1058E00001F089FCE62001F092FC112001F083FC1C
:1058F000002001F080FC342001F07DFC002001F04C
:105900007AFC562001F077FC002001F074FC762030
:1059100001F071FC002001F06EFC772001F06BFCBF
:10592000002001F068FC662001F065FC002001F019
:1059300062FC882001F05FFC002001F05CFC9920F3
:1059400001F059FC002001F056FCBB2001F053FC93
:10595000002001F050FC992001F04DFC002001F0E6
:105960004AFC662001F047FC002001F044FC552071
:1059700001F041FC002001F03EFC552001F03BFC11
:10598000002001F038FC452001F035FC002001F03A
:1059900032FC432001F02FFC002001F02CFC4420BD
:1059A00001F029FC002001F026FCE72001F02FFC8B
:1059B000322001F020FC002001F01DFC552001F0F8
:1059C0001AFC002001F017FC762001F014FC0020E6
:1059D00001F011FC662001F00EFC002001F00BFC30
:1059E000672001F008FC002001F005FC672001F0B1
:1059F00002FC002001F0FFFB872001F0FCFB0020EF
:105A000001F0F9FB992001F0F6FB002001F0F3FB17
:105A1000BB2001F0F0FB002001F0EDFB992001F02C
:105A2000EAFB002001F0E7FB772001F0E4FB002017
:105A300001F0E1FB442001F0DEFB002001F0DBFB84
:105A4000562001F0D8FB002001F0D5FB232001F007
:105A5000D2FB002001F0CFFB332001F0CCFB002073
:105A600001F0C9FB452001F0C6FB002001F0C3FB9B
:105A7000E82001F0CCFB002001F0BDFB002001F08C
:105A8000BAFB992001F0B7FB002001F0B4FB87209E
:105A900001F0B1FB002001F0AEFB882001F0ABFB70
:105AA000002001F0A8FB772001F0A5FB002001F009
:105AB000A2FB662001F09FFB002001F09CFB8820E8
:105AC00001F099FB002001F096FBAA2001F093FB66
:105AD000002001F090FBBB2001F08DFB002001F0C5
